:100000000C945E000C9486000C9486000C94860080
:100010000C9486000C9486000C9486000C94860048
:100020000C9486000C9486000C9486000C94860038
:100030000C9486000C9486000C9486000C94860028
:100040000C94AF070C9486000C94C50A0C94F70A24
:100050000C9486000C9486000C9486000C94860008
:100060000C9486000C948600000000080002010039
:100070000003040700000000000000000102040863
:100080001020408001020408102001020408102002
:10009000040404040404040402020202020203032E
:1000A0000303030300000000250028002B000000CC
:1000B0000000240027002A002D02270B11241FBE58
:1000C000CFEFD8E0DEBFCDBF12E0A0E0B1E0EEEFB1
:1000D000F8E102C005900D92AE3EB107D9F723E0DA
:1000E000AEEEB2E001C01D92A63BB207E1F710E010
:1000F000CCEBD0E004C02297FE010E94790CC83BF3
:10010000D107C9F70E946B0B0C947D0C0C94000076
:1001100060E0809105020E94110926E040E855E266
:1001200060E070E089E193E00E94630A20E042E031
:1001300060E187EF92E00E941C0387EF92E00E944B
:10014000FB0241E060E087EF92E00E94020367E07B
:1001500072E087EF92E00E94B80B0E948A078EEE51
:1001600092E00C94AC04CF93DF9341E060E087EF22
:1001700092E00E94020367E172E087EF92E00E9442
:10018000B80BC1E0D2E066EE70E088810E94890879
:1001900064E670E080E090E00E941C0860E070E09F
:1001A00088810E94890864E670E080E090E00E9407
:1001B0001C0866EE70E088810E94890864E670E0A1
:1001C00080E090E00E941C0860E070E088810E945E
:1001D000890864E670E080E090E00E941C0860E01E
:1001E00070E08881DF91CF910C948908CF93DF93E1
:1001F00041E060E087EF92E00E9402036CE172E070
:1002000087EF92E00E94B80BC3E0D2E068EC70E0A8
:1002100088810E94890864EF71E080E090E00E948C
:100220001C0860E070E08881DF91CF910C94890810
:100230000F931F93CF93DF93CDB7DEB760970FB6C1
:10024000F894DEBF0FBECDBF87EF92E00E94F402AC
:1002500040E060E087EF92E00E94020361E272E01A
:1002600087EF92E00E94B80B8EEE92E00E94340677
:100270008EEE92E00E948D06882309F499C087EFE4
:1002800092E00E94F40269E272E089E193E00E9448
:10029000B80B40E150E06091EE0289E193E00E94EA
:1002A0004D0C40E150E06091EF0289E193E00E9443
:1002B0004D0C40E150E06091F00289E193E00E9432
:1002C0004D0C40E150E06091F10289E193E00E9421
:1002D0004D0C62E472E087EF92E00E94B80B40E1BF
:1002E00050E06091EE0287EF92E00E944D0C40E1F9
:1002F00050E06091EF0287EF92E00E944D0C40E1E8
:1003000050E06091F00287EF92E00E944D0C40E1D6
:1003100050E06091F10287EF92E00E944D0C60E4A2
:1003200072E089E193E00E94D50B8091EE028B3858
:10033000D9F48091EF028B3799F58091F0028636DF
:1003400079F58091F102883B59F567E472E089E123
:1003500093E00E94D50B60E572E087EF92E00E9487
:10036000B80B0E94B30024C0843ED1F48091EF0208
:100370008937B1F48091F0028B3491F48091F102CD
:100380008F3F71F465E572E089E193E00E94D50B3F
:100390000E94B3006FEF70E082E00E94890808C0FD
:1003A00061E672E089E193E00E94D50B0E94F600BD
:1003B0006EEE72E0CB010E943D0740910002242FB7
:1003C0002695269580E1289F9001112420503F4FCB
:1003D0000EEE12E060E6C8010E94B606811132C03E
:1003E00060910002635060930002AE014F5F5F4F67
:1003F000C8010E94030781111AC063E772E089E116
:1004000093E00E94B80BBE016F5F7F4F89E193E0DC
:100410000E94D50B40E060E087EF92E00E9402036B
:10042000BE016F5F7F4F87EF92E00E94B80B809113
:1004300000028D5F8093000268EE73E080E090E040
:100440000E941C0860960FB6F894DEBF0FBECDBFA9
:10045000DF91CF911F910F910895AF92CF92EF92BC
:100460000F9382E0A82E93E0C92E24E0E22E09E04B
:1004700026E047E068E087EF92E00E94D70345E07E
:1004800050E06AE070E08EEE92E00F91EF90CF9036
:10049000AF900C940A04CF93DF93EC0160E08E815F
:1004A0000E944A0981E090E00E94440861E08E8148
:1004B0000E944A0981E090E00E94440860E08E8139
:1004C0000E944A0984E690E0DF91CF910C944408A1
:1004D000CF92DF92EF92FF920F931F93CF93DF9310
:1004E0007C01C0E0D0E0C62ED12C87010C0F1D1F6F
:1004F00061E0F80187810E941109B6010C2E02C04B
:10050000759567950A94E2F76170F80187810E94FA
:100510004A092196C430D10541F7C701DF91CF9137
:100520001F910F91FF90EF90DF90CF900C944B02B2
:10053000CF92DF92EF92FF920F931F93CF93DF93AF
:100540007C01C0E0D0E0C62ED12C87010C0F1D1F0E
:1005500061E0F80187810E941109B6010C2E02C0EA
:10056000759567950A94E2F76170F80187810E949A
:100570004A092196C830D10541F7C701DF91CF91D3
:100580001F910F91FF90EF90DF90CF900C944B0252
:100590001F93CF93DF93EC01162F642F8C810E9461
:1005A0004A098D818F3F19F060E00E944A098F85CA
:1005B000612F84FF06C0CE01DF91CF911F910C9473
:1005C000980270E084E0759567958A95E1F7CE0111
:1005D0000E946802612FCE01DF91CF911F910C9490
:1005E000680240E00C94C80261E00E94F10280EDD4
:1005F00097E00C94440862E00E94F10280ED97E0DD
:100600000C944408443008F043E0FC01238942176D
:1006100010F04FEF420FFC01E40FF11D2489260F6B
:100620002068622F0C94F102FC016089262F24605F
:10063000208B6C600C94F102CF93DF93EC0142307D
:1006400018F08F8588608F874B8B1C8A80E48D8B98
:100650006E8B70E0605C7F4F6F8B222329F04130FE
:1006600019F48F8584608F8780E593EC0E9444089D
:1006700060E08C810E944A0960E08E810E944A09F4
:100680008D818F3F19F060E00E944A096F8564FDFB
:100690001DC063E0CE010E94680284E991E10E94DE
:1006A000440863E0CE010E94680284E991E10E945F
:1006B000440863E0CE010E94680286E990E00E944F
:1006C000440862E0CE010E94680216C06062CE015A
:1006D0000E94F10284E991E10E9444086F85606202
:1006E000CE010E94F10286E990E00E9444086F85E5
:1006F0006062CE010E94F1026F856062CE010E94AD
:10070000F10284E0888BCE010E941403CE010E9486
:10071000F40282E0898B66E0CE01DF91CF910C94E8
:10072000F1026F927F928F92AF92CF92EF920F93DE
:100730001F93CF93DF93CDB7DEB73C01162F842FE5
:100740005D854E853F859889F301848325830683E3
:10075000E782C086A186828653874487358796873D
:1007600061E00E941109F30185818F3F19F061E07A
:100770000E94110961E0F30186810E941109112391
:1007800019F0F301178603C080E1F301878720E0A9
:1007900041E060E1C301DF91CF911F910F91EF9094
:1007A000CF90AF908F907F906F900C941C038F929E
:1007B000AF92CF92EF920F93DC0113961C921E9290
:1007C0001297EAEDF2E0ED93FC931F921F921F92B5
:1007D0001F928A2CAC2CCE2CE02E022F242F462FD9
:1007E00061E00E9491030F900F900F900F900F9176
:1007F000EF90CF90AF908F90089541E00E94C80293
:1008000081E090E008958EBD00000DB407FEFDCF9D
:100810008EB50895CF93DF93EC01862F6D837E8391
:1008200058874F8361E00E94110960E08D810E942A
:100830004A0961E08F810E94110961E08F81DF9197
:10084000CF910C944A09EF92FF921F93CF93DF93BD
:100850001F92CDB7DEB77C01162F60E0FC018581C9
:1008600049830E944A09812F880F8E770E940304D2
:100870004981842F0E94030461E0F70185810F9074
:10088000DF91CF911F91FF90EF900C944A094FE0B8
:1008900061E00C9423041F93CF93DF93EC01162F98
:1008A00060E08D810E944A09812F880F8E778068D1
:1008B0000E94030480E00E940304182F61E08D81F0
:1008C0000E944A09812FDF91CF911F910895EF92E5
:1008D000FF921F93CF93DF931F92CDB7DEB77C01BA
:1008E000162F49830E944B044981482B612FC70171
:1008F0000F90DF91CF911F91FF90EF900C94230404
:10090000EF92FF921F93CF93DF931F92CDB7DEB785
:100910007C01162F49830E944B044981409548234E
:10092000612FC7010F90DF91CF911F91FF90EF9042
:100930000C942304CF93DF93EC0164E10E944B04F9
:10094000837039F443E064E1CE01DF91CF910C94E0
:100950006704DF91CF910895CF93DF93EC0161E0BD
:100960008F810E944A09CE010E9447044DE86AE245
:10097000CE010E9423044EE36BE2CE010E942304C9
:100980004EE16DE2CE010E94230440E06CE2CE0114
:100990000E94230440E465E1CE010E9423044DE35C
:1009A00061E1CE010E942304CE01DF91CF910C942E
:1009B0009A048F929F92BF92CF92DF92EF92FF9212
:1009C0000F931F93CF93DF931F92CDB7DEB74C01E8
:1009D000D62EC42E790144E065E079830E9480041C
:1009E00040E86AE0C4010E946704BD2C0D2D7981A6
:1009F000172F802F8B198C1540F4F80141918F012E
:100A000069E0C4010E942304F4CF43E061E0C40123
:100A10000E9423041FEF65E0C4010E944B041150A3
:100A200011F082FFF8CF62E2C4010E944B04F7018B
:100A3000808361E2C4010E944B04F70181830F901F
:100A4000DF91CF911F910F91FF90EF90DF90CF90AA
:100A5000BF909F908F9008952F923F925F926F92D8
:100A60007F928F929F92AF92BF92CF92DF92EF923E
:100A7000FF920F931F93CF93DF931F92CDB7DEB7F3
:100A80001C01962E5A01622E8CE0681741F0EEE0B0
:100A90006E130AC060E1562E72E1872E07C040E354
:100AA000542E57E7852E02C0512C812C482D4068CA
:100AB00062E0C1010E94230440E864E0C1010E9499
:100AC000800440E86AE0C1010E94670440E061E000
:100AD000C1010E9423046501712CC6018A199B097A
:100AE0008615970540F4F60141916F0169E0C10157
:100AF0000E942304F2CF492D61E0C1010E9423042A
:100B0000FCE09F1205C040E86DE0C1010E9467044F
:100B100030EDC32E37E0D32E852D8160582E64E052
:100B2000C1010E944B04B82EE1E0CE1AD10811F0A9
:100B30008521A9F340E86DE0C1010E948004CD2821
:100B400019F422E0822E47C066E0C1010E944B04E6
:100B50008B71B9F7F82DF1708F2E8B208CE09812E5
:100B60003AC06AE0C1010E944B04482F6CE0C10109
:100B700049830E944B0487704981242F30E08823E9
:100B800051F02150310993E0220F331F9A95E1F77C
:100B9000280F311D05C083E0220F331F8A95E1F72E
:100BA000F70131832083442321F0413118F040E1E3
:100BB00001C041E06801E42EF12C9601201B310BAD
:100BC0002E153F0540F469E0C1010E944B04F60177
:100BD00081936F01F2CF882D0F90DF91CF911F91FC
:100BE0000F91FF90EF90DF90CF90BF90AF909F90CC
:100BF0008F907F906F905F903F902F900895AF926D
:100C0000BF92CF92DF92EF92FF920F931F93CF93F9
:100C1000DF9300D0CDB7DEB75C01162F6A0147E045
:100C20006DE00E942304F6011083CE0101967C0141
:100C3000860121E0A6016CE0C5010E942C0581110E
:100C400005C029813A812031310509F082E00F90F9
:100C50000F90DF91CF911F910F91FF90EF90DF9058
:100C6000CF90BF90AF900895CF93DF93CDB7DEB70D
:100C700060970FB6F894DEBF0FBECDBFAE014F5FD9
:100C80005F4F66E20E94FF0591E0811190E0892F9D
:100C900060960FB6F894DEBF0FBECDBFDF91CF9147
:100CA0000895AF92BF92CF92DF92EF92FF920F938F
:100CB0001F93CF93DF9300D0CDB7DEB75C016B01FC
:100CC00040E06DE00E94230483E9F601808380E226
:100CD0008183CE0101967C01860122E0A6016CE0B1
:100CE000C5010E942C0581110BC0F60124E090E0A3
:100CF000319193272150E1F7F6012481921382E08C
:100D00000F900F90DF91CF911F910F91FF90EF9077
:100D1000DF90CF90BF90AF9008950F931F93CF9324
:100D2000DF93CDB7DEB760970FB6F894DEBF0FBE86
:100D3000CDBF8C01BE016F5F7F4F0E94510695E0D1
:100D4000FE013196D80101900D929A95E1F791E05C
:100D5000811190E0892F60960FB6F894DEBF0FBE28
:100D6000CDBFDF91CF911F910F910895CF92DF9268
:100D7000EF92FF920F931F93CF93DF93CDB7DEB720
:100D80002E970FB6F894DEBF0FBECDBF6C016983FE
:100D90004A83F901DE011396CE01099621912D9324
:100DA000A817B907D9F7F80181E090E08C0F9D1FD3
:100DB0000C9621912D93A817B907D9F7CE010D965E
:100DC0007C018E010F5F1F4F2CE0A8016EE0C60171
:100DD0000E942C05182F811105C068E0C6010E94F1
:100DE0004B0483FF12E0812F2E960FB6F894DEBFDE
:100DF0000FBECDBFDF91CF911F910F91FF90EF906C
:100E0000DF90CF900895AF92BF92CF92DF92EF9292
:100E1000FF920F931F93CF93DF9300D0CDB7DEB730
:100E20005C016A0180E3FA01808361839A012E5F8D
:100E30003F4F42E0B601C5010E94D904CE010196A0
:100E40007C01860124E0A6016CE0C5010E942C050E
:100E5000811105C029813A812039310509F082E0EC
:100E60000F900F90DF91CF911F910F91FF90EF9016
:100E7000DF90CF90BF90AF900895CF92DF92EF9226
:100E8000FF920F931F93CF93DF93CDB7DEB72B97CE
:100E90000FB6F894DEBF0FBECDBF6C0183E9898326
:100EA00080E78A83FB019E012D5F3F4FCE010896AC
:100EB0004191D9014D939D01A817B907C9F747E0A2
:100EC000BE016F5F7F4FC6010E94D904CE010A9612
:100ED0007C018E010F5F1F4F29E0A8016CE0C60165
:100EE0000E942C05811106C08A859B85489711F4C4
:100EF000898101C080E02B960FB6F894DEBF0FBE4B
:100F0000CDBFDF91CF911F910F91FF90EF90DF90B8
:100F1000CF900895CF93CFB7F89480910F038111AC
:100F200016C061E08AE00E944A0961E08AE00E94FE
:100F300011098CB580618CBD8CB580648CBD61E07D
:100F40008DE00E94110961E08BE00E9411098091FF
:100F50000F038F5F80930F03CFBFCF9108951F9230
:100F60000F920FB60F9211242F933F938F939F935D
:100F7000AF93BF938091110390911203A09113033B
:100F8000B09114033091100323E0230F2D3720F488
:100F90000196A11DB11D05C026E8230F0296A11DD3
:100FA000B11D209310038093110390931203A0931B
:100FB0001303B09314038091150390911603A0912D
:100FC0001703B09118030196A11DB11D809315035D
:100FD00090931603A0931703B0931803BF91AF919A
:100FE0009F918F913F912F910F900FBE0F901F9067
:100FF00018953FB7F8948091150390911603A0912E
:101000001703B091180326B5A89B05C02F3F19F010
:101010000196A11DB11D3FBF6627782F892F9A2FFA
:10102000620F711D811D911D42E0660F771F881FA1
:10103000991F4A95D1F70895CF92DF92EF92FF92D0
:10104000CF93DF936B017C010E94F907EB01C11480
:10105000D104E104F10489F00E94540C0E94F907C4
:101060006C1B7D0B683E734090F381E0C81AD10879
:10107000E108F108C851DC4FEACFDF91CF91FF9032
:10108000EF90DF90CF900895019739F0880F991F66
:10109000880F991F02970197F1F70895789484B506
:1010A000826084BD84B5816084BD85B5826085BD64
:1010B00085B5816085BDEEE6F0E08081816080834A
:1010C000E1E8F0E01082808182608083808181602D
:1010D0008083E0E8F0E0808181608083E1EBF0E0F4
:1010E000808184608083E0EBF0E080818160808398
:1010F000EAE7F0E080818460808380818260808381
:101100008081816080838081806880831092C100AB
:1011100008951F93CF93DF93182FEB0161E00E9496
:101120001109209711F460E004C0CF3FD10539F4D4
:1011300061E0812FDF91CF911F910C944A09E12F3B
:10114000F0E0E859FF4FE491E330F9F048F4E13082
:10115000B9F0E230A1F584B5806284BDC8BD34C069
:10116000E730E9F0E83019F1E43049F5809180008A
:10117000806280938000D0938B00C0938A0024C04B
:1011800084B5806884BDC7BD1FC080918000806821
:1011900080938000D0938900C093880015C080910F
:1011A000B00080688093B000C093B3000DC0809100
:1011B000B00080628093B000C093B40005C0C03816
:1011C000D1050CF0B5CFAFCFDF91CF911F9108952E
:1011D000833081F028F4813099F08230A1F00895B5
:1011E0008730A9F08830B9F08430D1F48091800044
:1011F0008F7D03C0809180008F7780938000089559
:1012000084B58F7702C084B58F7D84BD08958091A9
:10121000B0008F7703C08091B0008F7D8093B000C5
:101220000895CF93DF9390E0FC01E458FF4F2491A1
:10123000FC01E057FF4F8491882349F190E0880F2B
:10124000991FFC01E255FF4FA591B4918C559F4F1A
:10125000FC01C591D4919FB7611108C0F8948C919D
:10126000209582238C93888182230AC0623051F4B6
:10127000F8948C91322F309583238C938881822B24
:10128000888304C0F8948C91822B8C939FBFDF914C
:10129000CF9108950F931F93CF93DF931F92CDB7F4
:1012A000DEB7282F30E0F901E859FF4F8491F901AA
:1012B000E458FF4F1491F901E057FF4F04910023C8
:1012C000C9F0882321F069830E94E8086981E02F32
:1012D000F0E0EE0FFF1FEC55FF4FA591B4919FB7C3
:1012E000F8948C91611103C01095812301C0812B6A
:1012F0008C939FBF0F90DF91CF911F910F91089515
:10130000FC01818D228D90E0805C9F4F821B9109B2
:101310008F7399270895FC01918D828D981731F074
:10132000828DE80FF11D858D90E008958FEF9FEF7E
:101330000895FC01918D828D981761F0828DDF01F7
:10134000A80FB11D5D968C91928D9F5F9F73928FB8
:1013500090E008958FEF9FEF08958DE19BE0892B3A
:1013600049F080E090E0892B29F00E941D0B81114B
:101370000C9400000895FC01848DDF01A80FB11DBD
:10138000A35ABF4F2C91848D90E001968F739927BB
:10139000848FA689B7892C93A089B1898C918064A8
:1013A0008C93938D848D981306C00288F389E02D69
:1013B00080818F7D80830895CF93DF93EC01888DAA
:1013C0008823C9F0EA89FB89808185FD05C0A88949
:1013D000B9898C9186FD0FC00FB607FCF5CF8081CF
:1013E00085FFF2CFA889B9898C9185FFEDCFCE0119
:1013F0000E94BB09E7CFDF91CF910895CF92DF9292
:10140000FF920F931F93CF93DF931F92CDB7DEB759
:101410006C01DC015B969C915B975C968C915C9770
:10142000981307C05096ED91FC915197808185FDEE
:1014300032C0F601038D10E00F5F1F4F0F731127AD
:10144000F02EF601848DF81211C00FB607FCF9CF0B
:10145000D6015096ED91FC915197808185FFF1CF97
:10146000C60169830E94BB096981EBCF838DE80FB8
:10147000F11DE35AFF4F6083D6015B960C935B9797
:101480005296ED91FC91539780818062808381E038
:1014900058968C930DC0D6015696ED91FC915797B6
:1014A00060835096ED91FC91519780818064808398
:1014B00081E090E00F90DF91CF911F910F91FF900D
:1014C000DF90CF900895BF92CF92DF92EF92FF927C
:1014D000CF93DF93EC016A017B01B22EE889F98991
:1014E00082E08083411581EE580761057105A1F006
:1014F00060E079E08DE390E0A70196010E94550C31
:10150000215031094109510956954795379527953D
:10151000211580E1380798F0E889F989108260E8A0
:1015200074E88EE190E0A70196010E94550C2150CD
:101530003109410951095695479537952795EC850D
:10154000FD853083EE85FF852083188EEC89FD892B
:10155000B082EA89FB89808180618083EA89FB8986
:10156000808188608083EA89FB89808180688083AC
:10157000EA89FB8980818F7D8083DF91CF91FF9005
:10158000EF90DF90CF90BF9008951F920F920FB60B
:101590000F9211242F938F939F93EF93FF93E091DA
:1015A0002903F0912A038081E0912F03F091300309
:1015B00082FD12C09081809132038F5F8F732091E2
:1015C0003303821751F0E0913203F0E0E75EFC4F05
:1015D000958F8093320301C08081FF91EF919F919D
:1015E0008F912F910F900FBE0F901F9018951F9203
:1015F0000F920FB60F9211242F933F934F935F9347
:101600006F937F938F939F93AF93BF93EF93FF93CA
:1016100089E193E00E94BB09FF91EF91BF91AF91E7
:101620009F918F917F916F915F914F913F912F91FA
:101630000F900FBE0F901F90189589E193E00E94C4
:10164000800921E0892B09F420E0822F089510926F
:101650001C0310921B0388EE93E0A0E0B0E080939F
:101660001D0390931E03A0931F03B093200382EEEB
:1016700092E090931A038093190385EC90E0909385
:1016800026038093250384EC90E0909328038093B5
:10169000270380EC90E090932A038093290381EC48
:1016A00090E090932C0380932B0382EC90E0909336
:1016B0002E0380932D0386EC90E09093300380936B
:1016C0002F031092320310923303109234031092BE
:1016D0003503089508950E944E080E946A0B0E94E7
:1016E0008800CDEAD9E00E9418012097E1F30E941A
:1016F000AD09F9CFCF92DF92EF92FF920F931F9334
:10170000CF93DF936C017A01EB01E60EF71E00E048
:1017100010E0CE15DF0561F06991D601ED91FC91E5
:101720000190F081E02DC6010995080F191FF1CF36
:10173000C801DF91CF911F910F91FF90EF90DF9043
:10174000CF9008956115710581F0DB010D900020A7
:10175000E9F7AD0141505109461B570BDC01ED91F2
:10176000FC910280F381E02D099480E090E00895DF
:101770000C94A20BDC01ED91FC910190F081E02D25
:1017800009940F931F93CF93DF93EC016DE00E94B8
:10179000BA0B8C016AE0CE010E94BA0B800F911F38
:1017A000DF91CF911F910F9108950F931F93CF93C6
:1017B000DF93EC010E94A20B8C01CE010E94C10BB1
:1017C000800F911FDF91CF911F910F9108958F92FC
:1017D0009F92AF92BF92CF92DF92EF92FF920F93C0
:1017E0001F93CF93DF93CDB7DEB7A1970FB6F894D1
:1017F000DEBF0FBECDBF7C01C42EE52FCB01D22EA4
:1018000019A221E02D1510F02AE0D22E8E010F5DD5
:101810001F4F8D2C912CA12CB12C6C2D7E2FA5014E
:1018200094010E94550C8C2DD29E801911240150D8
:1018300011098A3014F4805D01C0895CF80180834D
:10184000211531054105510521F0C22EE32FCA01B2
:10185000E4CFB801C7010E94A20BA1960FB6F8947D
:10186000DEBF0FBECDBFDF91CF911F910F91FF90D3
:10187000EF90DF90CF90BF90AF909F908F900895A2
:101880002115310541F4DC01ED91FC910190F081CD
:10189000E02D642F09940C94E70B9A01462F50E039
:1018A00060E070E00C94400C0895A1E21A2EAA1B8F
:1018B000BB1BFD010DC0AA1FBB1FEE1FFF1FA21700
:1018C000B307E407F50720F0A21BB30BE40BF50BFD
:1018D000661F771F881F991F1A9469F76095709586
:1018E000809590959B01AC01BD01CF010895EE0F4D
:0E18F000FF1F0590F491E02D0994F894FFCFAE
:1018FE00FFFFFFFFFFFFFF078069FFFFFFFFFFFFF7
:10190E00FFFFFFFFFFFFFF078069FFFFFFFFFFFFE6
:10191E00FFFFFFFFFFFFFF078069FFFFFFFFFFFFD6
:10192E00FFFFFFFFFFFFFF078069FFFFFFFFFFFFC6
:10193E00FFFFFFFFFFFFFF078069FFFFFFFFFFFFB6
:10194E00FFFFFFFFFFFFFF078069FFFFFFFFFFFFA6
:10195E00FFFFFFFFFFFFFF078069FFFFFFFFFFFF96
:10196E00FFFFFFFFFFFFFF078069FFFFFFFFFFFF86
:10197E00FFFFFFFFFFFFFF078069FFFFFFFFFFFF76
:10198E00FFFFFFFFFFFFFF078069FFFFFFFFFFFF66
:10199E00FFFFFFFFFFFFFF078069FFFFFFFFFFFF56
:1019AE00FFFFFFFFFFFFFF078069FFFFFFFFFFFF46
:1019BE00FFFFFFFFFFFFFF078069FFFFFFFFFFFF36
:1019CE00FFFFFFFFFFFFFF078069FFFFFFFFFFFF26
:1019DE00FFFFFFFFFFFFFF078069FFFFFFFFFFFF16
:1019EE00FFFFFFFFFFFFFF078069FFFFFFFFFFFF06
:1019FE00370F000E00100057656C636F6D65207415
:101A0E006F205573652100504153530044454E5984
:101A1E00005374616E64627900546865206361726C
:101A2E00642773206E756D62657220697320203A8B
:101A3E0020005549443A0048657920456E6F2100D3
:101A4E0020456E6F0048656C6C6F2047726567218C
:101A5E000048656C6C6F20756E6B6F776E206775C6
:101A6E00792100526561642066726F6D207468651D
:101A7E002063617264202C74686520646174612037
:101A8E006973203A200041757468656E74696361EC
:101A9E007465642100446174612057524954544561
:101AAE004E21005772697465204F4B004661696C78
:101ABE0020746F20577269746521005772697465BE
:101ACE00204661696C0000000000FD037A0B0000E7
:0E1ADE000000FE097A0B800999098B09DC09CA
:00000001FF
